:020000040800F2
:100000000080012029090008390800083B08000881
:100010003D0800083F0800084108000800000000F3
:10002000000000000000000000000000D1280008CF
:10003000430800080000000071290008D5290008C5
:100040007909000879090008790900087909000888
:100050007909000879090008790900087909000878
:100060007909000879090008790900087909000868
:100070007909000879090008790900087909000858
:100080007909000879090008790900087909000848
:100090007909000879090008790900087909000838
:1000A0007909000879090008790900087909000828
:1000B0007909000879090008790900087909000818
:1000C0007909000879090008790900087909000808
:1000D00079090008790900087909000879090008F8
:1000E00079090008790900087909000879090008E8
:1000F00079090008790900087909000879090008D8
:1001000079090008790900087909000879090008C7
:1001100079090008790900084508000879090008EC
:1001200079090008790900087909000879090008A7
:100130007909000879090008790900087909000897
:100140007909000879090008790900087909000887
:100150007909000879090008790900087909000877
:100160007909000879090008790900087909000867
:1001700079090008790900087909000800000000E1
:08018000790900087909000863
:1001900010B5054C237833B9044B13B10448AFF3C1
:1001A00000800123237010BD3C04002000000000EB
:1001B000CC36000808B5034B1BB103490348AFF325
:1001C000008008BD0000000040040020CC3600087C
:1001D00053B94AB9002908BF00281CBF4FF0FF31AE
:1001E0004FF0FF3000F074B9ADF1080C6DE904CEAA
:1001F00000F006F8DDF804E0DDE9022304B0704702
:100200002DE9F047089D04468E46002B4DD18A42C9
:10021000944669D9B2FA82F252B101FA02F3C2F1FC
:10022000200120FA01F10CFA02FC41EA030E94408D
:100230004FEA1C48210CBEFBF8F61FFA8CF708FBAE
:1002400016E341EA034306FB07F199420AD91CEB86
:10025000030306F1FF3080F01F81994240F21C81B8
:10026000023E63445B1AA4B2B3FBF8F008FB103300
:1002700044EA034400FB07F7A7420AD91CEB040435
:1002800000F1FF3380F00A81A74240F20781644405
:10029000023840EA0640E41B00261DB1D44000238A
:1002A000C5E900433146BDE8F0878B4209D9002DEE
:1002B00000F0EF800026C5E9000130463146BDE878
:1002C000F087B3FA83F6002E4AD18B4202D38242E2
:1002D00000F2F980841A61EB030301209E46002D91
:1002E000E0D0C5E9004EDDE702B9FFDEB2FA82F2E6
:1002F000002A40F09280A1EB0C014FEA1C471FFA44
:100300008CFE0126200CB1FBF7F307FB131140EA2A
:1003100001410EFB03F0884208D91CEB010103F1F7
:10032000FF3802D2884200F2CB804346091AA4B2B9
:10033000B1FBF7F007FB101144EA01440EFB00FE8D
:10034000A64508D91CEB040400F1FF3102D2A645F2
:1003500000F2BB800846A4EB0E0440EA03409CE791
:10036000C6F12007B34022FA07FC4CEA030C20FA3E
:1003700007F401FA06F31C43F9404FEA1C4900FA5E
:1003800006F3B1FBF9F8200C1FFA8CFE09FB1811DB
:1003900040EA014108FB0EF0884202FA06F20BD94E
:1003A0001CEB010108F1FF3A80F08880884240F29E
:1003B0008580A8F102086144091AA4B2B1FBF9F0E2
:1003C00009FB101144EA014100FB0EFE8E4508D9DD
:1003D0001CEB010100F1FF346CD28E456AD9023862
:1003E000614440EA0840A0FB0294A1EB0E01A14247
:1003F000C846A64656D353D05DB1B3EB080261EBB5
:100400000E0101FA07F722FA06F3F1401F43C5E98E
:10041000007100263146BDE8F087C2F12003D840C4
:100420000CFA02FC21FA03F3914001434FEA1C4706
:100430001FFA8CFEB3FBF7F007FB10360B0C43EAF8
:10044000064300FB0EF69E4204FA02F408D91CEBA8
:10045000030300F1FF382FD29E422DD902386344A6
:100460009B1B89B2B3FBF7F607FB163341EA034146
:1004700006FB0EF38B4208D91CEB010106F1FF3895
:1004800016D28B4214D9023E6144C91A46EA00468C
:1004900038E72E46284605E70646E3E61846F8E61E
:1004A0004B45A9D2B9EB020864EB0C0E0138A3E767
:1004B0004646EAE7204694E74046D1E7D0467BE748
:1004C000023B614432E7304609E76444023842E7C0
:1004D000704700BF08B520214FF0904000F0D3FBDB
:1004E0004FF4FA7002F050F9F5E708B501214FF02A
:1004F000904000F0C8FB4FF4FA7002F045F9F5E7C0
:1005000008B502214FF0904000F0BDFB4FF4FA70A7
:1005100002F03AF9F5E708B510214FF0904000F0ED
:10052000B2FB4FF4FA7002F02FF9F5E7034B0360CA
:10053000034B0B6080231360704700BF68060020E8
:100540006804002010B59CB0244C0DF1540CA64654
:10055000BEE80F00ACE80F009EE807008CE807003B
:10056000002115A802F0DBF81D4B18600DF1380CC6
:1005700004F11C0EBEE80F00ACE80F009EE8070077
:100580008CE8070000210EA802F0C9F8154B18608E
:100590000DF11C0C04F1380EBEE80F00ACE80F00A2
:1005A0009EE807008CE80700002107A802F0B7F8D2
:1005B0000D4B1860EE4604F1540CBCE80F00AEE899
:1005C0000F009CE807008EE807000021684602F053
:1005D000A6F8064B18601CB010BD00BFE43600083A
:1005E00058040020640400205C0400206004002003
:1005F00030B58BB0002405940694079408940994B0
:10060000264BDA6C42F00402DA64DA6C02F004027F
:100610000192019ADA6C42F08002DA64DA6C02F03C
:1006200080020292029ADA6C42F00102DA64DA6C19
:1006300002F001020392039ADA6C42F00202DA64D9
:10064000DB6C03F002030493049B224633214FF03A
:10065000904000F013FB4FF4005305934FF4041344
:100660000693079405A90E4800F008FA1323059392
:100670000125069507940323089305A94FF09040A0
:1006800000F0FCF92023059306950794089405A92A
:100690004FF0904000F0F2F90BB030BD0010024076
:1006A0000008004808B50268034B9A4200D008BD14
:1006B00000F07AF9FBE700BF0010004072B6FEE7D9
:1006C00000B597B04422002105A802F03DFF0023A9
:1006D000009301930293039304934FF4007000F08E
:1006E000E3FA20BB022305934FF480720892102294
:1006F00009920F931093012211920A22129207225B
:1007000013921493159305A800F0B8FB88B90F2332
:100710000093032301930023029303930493042182
:10072000684600F0B9FE30B917B05DF804FBFFF77A
:10073000C5FFFFF7C3FFFFF7C1FF08B500F01EF9C3
:10074000FFF7BEFFFFF754FF00F08EF8FFF7FAFE49
:1007500001F0E0FFFEE7000000B583B00D4B1A6E1C
:1007600042F001021A661A6E02F001020092009A2B
:100770009A6D42F080529A659B6D03F0805301930D
:10078000019B00220F216FF0010000F031F903B04E
:100790005DF804FB0010024030B589B00446214BDF
:1007A0009A6D42F010029A659B6D03F0100301935D
:1007B000019B02A903A800F05DFF069BCBB900F0E6
:1007C00035FF03461848A0FB03239B0C013B174849
:1007D000174A026040F2E732C260436000230361BF
:1007E0008360836101F05AFC054630B1284609B0A8
:1007F00030BD00F01BFF4300E4E70C4801F0E2FAD3
:1008000005460028F2D1362000F02AF90F2C01D934
:100810000125EBE700222146362000F0E9F8054BE0
:100820001C60E3E70010024083DE1B43BC0600208F
:100830000010004008000020FEE7FEE7FEE7FEE7AC
:10084000FEE7704708B5024801F006FB08BD00BF8F
:10085000BC060020034AD2F8883043F47003C2F883
:100860008830704700ED00E008B50B480B4B036083
:100870004FF4E133436000238360C36003610C22C3
:1008800042618361C3610362436201F00CFF00B9FE
:1008900008BDFFF713FFFBE70807002000440040F6
:1008A00010B5AAB0044600212591269127912891E0
:1008B0002991882203A802F047FE2268184B9A4229
:1008C00001D02AB010BD0223039303A801F04EF813
:1008D00010BB144B9A6D42F400329A659A6D02F483
:1008E00000320192019ADA6C42F00102DA64DB6CA8
:1008F00003F001030293029B0C232593022326930A
:1009000000232793032328930723299325A94FF036
:10091000904000F0B3F8D4E7FFF7D0FED9E700BF6E
:100920000044004000100240DFF834D0FFF792FF8F
:100930000C480D490D4A002302E0D458C45004333A
:10094000C4188C42F9D30A4A0A4C002301E0136010
:100950000432A242FBD302F0D3FDFFF7EEFEFEE726
:1009600000800120000000203C040020EC3700083B
:100970003C040020A4140020FEE7000010B5094A42
:10098000136843F480731360032000F01FF80F20F6
:10099000FFF702FF10B10124204610BD0446FFF707
:1009A000DBFEF9E700200240034B1B78034A116885
:1009B0000B441360704700BF040000209007002024
:1009C000014B1868704700BF90070020074AD368A2
:1009D00023F4E0631B041B0C000200F4E0600343FB
:1009E00043F0BF6343F40033D360704700ED00E091
:1009F00000B5194BDB68C3F30223C3F1070CBCF14C
:100A0000040F28BF4FF0040C03F1040EBEF1060FD3
:100A100018D9033B4FF0FF3E0EFA0CFC21EA0C0103
:100A200099400EFA03F322EA0303194300280BDB73
:100A30000901C9B200F1604000F5614080F800137F
:100A40005DF804FB0023E5E700F00F000901C9B2DF
:100A5000024B1954F4E700BF00ED00E014ED00E094
:100A6000002807DB00F01F02400901239340024ADF
:100A700042F82030704700BF00E100E0F0B583B0DD
:100A800000236BE085685E000324B44025EA04057A
:100A9000CC68B4402C438460456825EA0C054C685A
:100AA000C4F300149C402C43446069E0C56A25EA05
:100AB0000C0CC4F3C0049C4044EA0C04C46265E01E
:100AC000DD08083550F8256003F007044FEA840C70
:100AD0000F2404FA0CF426EA040E0C6904FA0CF450
:100AE00044EA0E0440F8254067E0062400E00024B4
:100AF00004FA0EF42C430CF1020C5C4D45F82C402A
:100B00005B4CA568D44325EA02064F6817F4801FA2
:100B100001D042EA0506564DAE60ED6804EA0506CE
:100B20004F6817F4001F01D042EA0506504DEE60F1
:100B30006D6804EA05064F6817F4003F01D042EAE9
:100B400005064B4D6E602D682C404E6816F4803FB4
:100B500001D042EA0504464A146001330A6832FAB9
:100B600003F400F081804FF0010C0CFA03FC1CEA46
:100B70000202F2D04C6804F00304013C012C81D93C
:100B80004C6804F0030EBEF1030F8FD04C6804F0E4
:100B90000304032C0CD0C4685D004FF0030C0CFA66
:100BA00005FC24EA0C0C8C68AC4044EA0C04C460DC
:100BB0004C6804F00304022C82D004684FEA430E10
:100BC0004FF0030C0CFA0EFC24EA0C0C4C6804F0F9
:100BD000030404FA0EF444EA0C0404604C6814F4B0
:100BE000403FBAD0234C256E45F001052566246EA2
:100BF00004F001040194019C4FEA930C0CF10205EE
:100C00001A4C54F8255003F003044FEA840E0F24C5
:100C100004FA0EF425EA0405B0F1904F3FF467AFF3
:100C2000154CA04216D004F58064A04214D004F5FF
:100C30008064A04212D004F58064A04210D004F574
:100C40008064A0420ED004F58064A0423FF44DAF12
:100C500007244DE701244BE7022449E7032447E733
:100C6000042445E7052443E703B0F0BD000001403C
:100C70000004014000100240000400480AB18161F4
:100C8000704781627047436901EA030221EA030168
:100C900041EA024181617047024B186800F4C0606C
:100CA000704700BF00700040B0F5007F0FD01F4BB1
:100CB0001B6803F4C063B3F5806F34D01B4A13681C
:100CC00023F4C06343F48063136000207047174B24
:100CD0001B6803F4C063B3F5007F20D0134A136888
:100CE00023F4C06343F400731360114B1B6832227A
:100CF00002FB03F30F4AA2FB03239B0C013300E02A
:100D0000013B0A4A526912F4806F01D0002BF7D1DF
:100D1000064B5B6913F4806F03D1002070470020FD
:100D20007047032070470020704700BF00700040EC
:100D30000000002083DE1B4330B583B00446204B07
:100D40009B6D13F0805F0BD0FFF7A6FFB0F5007F1F
:100D500017D0802C1FD82DD0702C2DD000211BE057
:100D6000174DAB6D43F08053AB65AB6D03F0805313
:100D70000193019BFFF790FFAB6D23F08053AB65B0
:100D8000E4E7802C03D9A02C03D9022104E0002140
:100D900002E0012100E003210A4A136823F007035F
:100DA0000B431360136803F007038B4206D1002046
:100DB00003B030BD0221EFE70121EDE70120F7E7A5
:100DC0000010024000200240284A9368D26802F0D6
:100DD000030213F00C030AD00C2B06D0042B1FD0F7
:100DE000082B20D00020024610E0012AF6D11F4A2D
:100DF000126812F0080F0CD11C4AD2F89420C2F3EA
:100E000003221B4951F8222043B100200C2B0DD0A6
:100E10007047164A1268C2F30312F2E71046F5E76C
:100E200014480022F2E714480022EFE70F4BDB687A
:100E300003F00303022B16D0032B00D10E4A0B49FB
:100E4000C868C0F30210431CC868C0F3062002FB48
:100E500000F0B0FBF3F0CB68C3F3416301335B00F8
:100E6000B0FBF3F0D4E7034AE9E700BF001002400B
:100E70009C3700080024F40000127A00002800F0DB
:100E8000F182F0B583B00446964B9D6805F00C05E1
:100E9000DE6806F00306036813F0100F5AD0E5B1C0
:100EA0000C2D18D0A369002B00F0BB808D4A13686D
:100EB00043F001031360FFF783FD0746894B1B686E
:100EC00013F0020F40F09A80FFF77AFDC01B022852
:100ED000F4D90320D1E2012EE4D1824B1B6813F038
:100EE000020F03D0A369002B00F0BE82206A7D4B65
:100EF0001B6813F0080F5BD07A4B1B6803F0F003FC
:100F000098425CD8774B1A6842F008021A601A6857
:100F100022F0F002216A0A431A605A6822F47F42E2
:100F2000E16942EA01225A60002D60D0FFF74CFFD0
:100F30006C4B9B68C3F303136B4AD35C03F01F0332
:100F4000D8406A4B18606A4B1868FFF725FC0028E8
:100F500040F09382236813F0010F00F08180082D88
:100F600075D00C2D71D06368B3F5803F00F0978089
:100F7000B3F5A02F00F099805A4B1A6822F4803202
:100F80001A601A6822F480221A606368002B00F04D
:100F90009980FFF715FD0746524B1B6813F4003F7D
:100FA0005ED1FFF70DFDC01B6428F5D9032064E274
:100FB0004C4BD3F894301B0903F0F003A0E7FFF784
:100FC000BBFE002840F05282464B1A6842F00802ED
:100FD0001A601A6822F0F002216A0A431A605A68FD
:100FE00022F47F42E16942EA01225A609EE7206AC8
:100FF000FFF7A2FE002899D001203EE2394B1A6883
:1010000042F008021A601A6822F0F002216A0A43CC
:101010001A605A6822F47F42E16942EA01225A606A
:1010200098E7304A136823F001031360FFF7C8FC08
:1010300007462C4B1B6813F0020F8BD0FFF7C0FC48
:10104000C01B0228F5D9032017E2032E8BD1254BB4
:101050001B6813F4003F03D06368002B00F0088284
:10106000236813F0020F58D0042D45D00C2D41D029
:10107000E368002B77D01B4A136843F48073136036
:10108000FFF79EFC0646174B1B6813F4806F61D177
:10109000FFF796FC801B0228F5D90320EDE1114AE9
:1010A000136843F4803313606FE703F18043A3F5C3
:1010B0003C331A6842F480221A601A6842F4803283
:1010C0001A6062E7FFF77CFC0746064B1B6813F4C7
:1010D000003FC5D0FFF774FCC01B6428F5D903207E
:1010E000CBE100BF00100240843700080000002060
:1010F00008000020022EBBD1A34B1B6813F4806FA5
:1011000003D0E368002B00F0B5819F4A536823F0B9
:10111000F853216943EA01635360236813F0080F11
:101120004CD063699BB3984AD2F8943043F00103E2
:10113000C2F89430FFF744FC0646934BD3F8943042
:1011400013F0020F3AD1FFF73BFC801B0228F4D9C1
:10115000032092E18C4A536823F0F853216943EA53
:1011600001635360D9E7884A136823F480731360DE
:10117000FFF726FC0646844B1B6813F4806FCCD027
:10118000FFF71EFC801B0228F5D9032075E17E4A7B
:10119000D2F8943023F00103C2F89430FFF710FC2A
:1011A0000646794BD3F8943013F0020F06D0FFF7C0
:1011B00007FC801B0228F4D903205EE1236813F0AA
:1011C000040F7AD0704B9B6D13F0805F36D16E4B5D
:1011D0009A6D42F080529A659B6D03F080530193A3
:1011E000019B0126694B1B6813F4807F28D0A368FC
:1011F000012B39D0052B3FD0634BD3F8902022F040
:101200000102C3F89020D3F8902022F00402C3F822
:101210009020A368002B3DD0FFF7D2FB07465A4B26
:10122000D3F8903013F0020F46D1FFF7C9FBC01B73
:1012300041F288339842F2D903201EE10026D1E71B
:10124000524A136843F480731360FFF7B9FB0746F3
:101250004E4B1B6813F4807FC9D1FFF7B1FBC01B55
:101260000228F5D9032008E1474AD2F8903043F02C
:101270000103C2F89030CCE7434BD3F8902042F002
:101280000402C3F89020D3F8902042F00102C3F882
:101290009020BEE7FFF794FB07463B4BD3F8903016
:1012A00013F0020F08D0FFF78BFBC01B41F288330D
:1012B0009842F2D90320E0E0EEB9A36A002B00F0D7
:1012C000DB80022B1DD00C2D00F0DD802E4A136830
:1012D00023F080731360FFF773FB04462A4B1B68EF
:1012E00013F0007F00F0B780FFF76AFB001B0228B5
:1012F000F4D90320C1E0244A936D23F08053936511
:10130000DBE7214BDB6803F00301E26A91420FD077
:101310000C2D00F0B4801C4B1B6813F0806F40F064
:10132000B080194B1B6813F0805F31D00120A4E01E
:1013300003F07002216B0139B2EB011FE8D103F415
:10134000FE42616BB2EB012FE2D103F40031A26BDC
:10135000073A18BF01229142DAD103F4C001E26BCF
:101360005208013AB1EB425FD2D103F0C063226C64
:101370005208013AB3EB426FCAD1034B1B6813F01A
:10138000007F4ED0002078E0001002400070004046
:101390003E4A136823F080731360FFF711FB054684
:1013A0003A4B1B6813F0007F06D0FFF709FB401B88
:1013B0000228F5D9032060E0344AD3683449194043
:1013C000E36A206B013843EA0013606B43EA0023B1
:1013D000E06B4008013843EA4053206C4008013874
:1013E00043EA4063A06B000943EA40430B43D360E8
:1013F000136843F080731360D36843F08073D36045
:10140000FFF7DEFA0446214B1B6813F0007F06D17C
:10141000FFF7D6FA001B0228F5D903202DE00020A3
:101420002BE01A4B1A6842F080721A60DA6842F0B8
:101430008072DA60FFF7C4FA0446144B1B6813F09D
:10144000007F06D1FFF7BCFA031B022BF5D903205E
:1014500013E0002011E00D4AD1680E4B0B40D36021
:1014600000200AE001207047012006E0012004E08E
:10147000012002E0012000E0002003B0F0BD0120C7
:10148000FBE70120F9E70120F7E700BF0010024069
:101490008C809DF9FCFFEEFE002800F0AF8070B557
:1014A0000D460446594B1B6803F007038B420BD2D1
:1014B000564A136823F007030B431360136803F0C5
:1014C00007038B4240F09C80236813F0020F0CD07E
:1014D000A2684F4B9B6803F0F0039A4205D94C4930
:1014E0008B6823F0F0031A438A60236813F0010F1E
:1014F00039D06368032B09D0022B26D063BB444A42
:10150000126812F0020F06D1012076E0404A1268FC
:1015100012F0007F76D03E498A6822F0030213431E
:101520008B60FFF74DFA0646394B9B6803F00C03BE
:101530006268B3EB820F16D0FFF742FA801B41F2CC
:1015400088339842F0D9032057E0314A126812F4E8
:10155000003FE0D1012050E02D4A126812F4806F64
:10156000D9D1012049E0236813F0020F0CD0A26802
:10157000274B9B6803F0F0039A4205D224498B68FD
:1015800023F0F0031A438A60204B1B6803F0070323
:10159000AB420AD91D4A136823F007032B4313609B
:1015A000136803F00703AB422ED1236813F0040F36
:1015B00006D0174A936823F4E063E1680B43936015
:1015C000236813F0080F07D0114A936823F460537F
:1015D000216943EAC1039360FFF7F6FB0C4B9B685C
:1015E000C3F303130B4AD35C03F01F03D8400A4B29
:1015F00018600A4B1868FFF7CFF870BD01207047DC
:101600000120FAE70120F8E70120F6E70020024078
:10161000001002408437000800000020080000206D
:10162000014B1868704700BF0000002008B5FFF7A5
:10163000F7FF054B9B68C3F30223044AD35C03F016
:101640001F03D84008BD00BF0010024094370008B7
:1016500008B5FFF7E5FF054B9B68C3F3C223044AB7
:10166000D35C03F01F03D84008BD00BF0010024048
:10167000943700080F2303600B4B9A6802F00302B3
:1016800042609A6802F0F00282609A6802F4E062B6
:10169000C2609B68DB0803F4E0630361034B1B68D3
:1016A00003F007030B607047001002400020024067
:1016B000F8B504460F46594BDB6813F0030F18D0FA
:1016C000564BDB6803F003030268934202D0012506
:1016D0002846F8BD002A00F09E80504BDB68C3F31B
:1016E000021301334268934201D00125F0E700253F
:1016F00009E00368022B57D0032B5CD0012B42D0AA
:101700000125002DE4D1454A136823F0806313605E
:10171000FFF756F90646414B1B6813F0006F05D0E2
:10172000FFF74EF9831B022BF5D90325002DCFD1EE
:10173000002F4ED139490B6923F41F3323F4407332
:10174000A068E2681209520442EA002213430B61C6
:10175000324A136843F080631360FFF731F906469D
:101760002E4B1B6813F0006F05D1FFF729F9831B7F
:10177000022BF5D90325002DAAD1284A1369A169A6
:101780000B431361A4E7254A126812F0020F1ED022
:101790002248C26822F073026168013943EA0113EA
:1017A0001343C3600025ACE71C4A126812F4806F33
:1017B000EED10125A5E7194A126812F4003FE7D1DE
:1017C000164A126812F4802FE2D1012599E701250B
:1017D00097E7012F0FD01148026922F0C06222F46E
:1017E000FE42A16863695B08013B5B0643EA012393
:1017F00013430361ACE70948026922F4C00222F4F2
:10180000FE42A16823695B08013B5B0543EA0123B3
:10181000134303619CE701255AE700BF0010024013
:10182000F8B504460F46504BDB6813F0030F18D091
:101830004D4BDB6803F003030268934202D001259D
:101840002846F8BD002A00F08C80474BDB68C3F3C4
:10185000021301334268934201D00125F0E70025CD
:1018600009E00368022B57D0032B5CD0012B42D038
:101870000125002DE4D13C4A136823F08053136006
:10188000FFF79EF80646384B1B6813F0005F05D043
:10189000FFF796F8831B022BF5D90325002DCFD136
:1018A000002F4ED130494B6923F41F3323F440738A
:1018B000A068E2681209520442EA002213434B6115
:1018C000294A136843F080531360FFF779F80646FE
:1018D000254B1B6813F0005F05D1FFF771F8831BE0
:1018E000022BF5D90325002DAAD11F4A536961693E
:1018F0000B435361A4E71C4A126812F0020F1ED07A
:101900001948C26822F073026168013943EA011381
:101910001343C3600025ACE7134A126812F4806FCA
:10192000EED10125A5E7104A126812F4003FE7D175
:101930000D4A126812F4802FE2D1012599E70125A2
:1019400097E70948426922F0C06222F4FE42A1688A
:1019500023695B08013B5B0643EA012313434361B0
:10196000AEE701256CE700BF001002402DE9F04111
:1019700082B00446036813F4006F33D0436EB3F5AE
:10198000000F1FD00CD823B3B3F5800F05D1002171
:101990002030FFF745FF064620E001273E4623E0C2
:1019A000B3F5400F0BD10026604AD2F8883023F4FB
:1019B0004003616E0B43C2F88830002714E0012712
:1019C0003E4611E0594AD36843F48033D360002681
:1019D000EAE700210430FFF76BFE0646002EE3D055
:1019E000374601E000273E46236813F4805F30D07D
:1019F000A36EB3F1007F1FD00DD81BB3B3F1807F6E
:101A000006D1002104F12000FFF70AFF064605E099
:101A100001273E461DE0B3F1407F0AD1C6B9434AD3
:101A2000D2F8883023F04073A16E0B43C2F888309F
:101A30000FE001273E460CE03C4AD36843F4803374
:101A4000D360EBE70021201DFFF732FE0646E5E7F5
:101A50003746236813F4003F71D0344B9B6D13F06D
:101A6000805F4ED1314B9A6D42F080529A659B6DEA
:101A700003F080530193019B4FF001082C4A136837
:101A800043F480731360FEF79BFF0546284B1B68E9
:101A900013F4807F05D1FEF793FF401B0228F5D990
:101AA0000326002E46D1214BD3F8903013F4407317
:101AB00016D0D4F884209A4212D01C4AD2F8903022
:101AC00023F44073D2F8901041F48031C2F89010A2
:101AD000D2F8901021F48031C2F89010C2F8903002
:101AE00013F0010F10D1002E40F027810F4AD2F8D9
:101AF000903023F44073D4F884100B43C2F8903034
:101B000019E04FF00008B9E7FEF75AFF0546074B0A
:101B1000D3F8903013F0020FE5D1FEF751FF401BD0
:101B200041F288339842F2D90326DCE700100240E4
:101B3000007000403746B8F1000F40F00081236884
:101B400013F0010F08D09D4AD2F8883023F0030328
:101B5000A16B0B43C2F88830236813F0020F08D042
:101B6000964AD2F8883023F00C03E16B0B43C2F89D
:101B70008830236813F0040F08D0904AD2F88830D8
:101B800023F03003216C0B43C2F88830236813F034
:101B9000080F08D0894AD2F8883023F0C003616C5E
:101BA0000B43C2F88830236813F0100F08D0834A23
:101BB000D2F8883023F44073A16C0B43C2F888300C
:101BC000236813F0200F08D07C4AD2F8883023F421
:101BD0004063E16C0B43C2F88830236813F4007F44
:101BE00008D0764AD2F8883023F44023E16D0B43C5
:101BF000C2F88830236813F4806F08D06F4AD2F897
:101C0000883023F44013216E0B43C2F888302368D8
:101C100013F0400F08D0694AD2F8883023F44053BB
:101C2000216D0B43C2F88830236813F0800F08D071
:101C3000624AD2F8883023F44043616D0B43C2F806
:101C40008830236813F4807F08D05C4AD2F888304B
:101C500023F44033A16D0B43C2F88830236813F49A
:101C6000005F0FD0554AD2F8883023F04063E16E10
:101C70000B43C2F88830E36EB3F1006F65D0B3F167
:101C8000806F67D0236813F4002F0FD04B4AD2F82F
:101C9000883023F04063216F0B43C2F88830236FF4
:101CA000B3F1006F5ED0B3F1806F60D0236813F49E
:101CB000802F0FD0414AD2F8883023F04063616F03
:101CC0000B43C2F88830636FB3F1006F57D0B3F1A4
:101CD000806F59D0236813F4804F0FD0374AD2F861
:101CE000883023F04053A16F0B43C2F88830A36FB4
:101CF000B3F1805F50D0B3F1005F55D0236813F487
:101D0000004F08D02D4AD2F8883023F08043E16F8D
:101D10000B43C2F88830236813F4803F09D0274A68
:101D2000D2F8883023F00043D4F880100B43C2F877
:101D30008830384602B0BDE8F0813746FBE61F4ADE
:101D4000936D23F080539365F9E6D36843F48013D1
:101D5000D36097E70121201DFFF7AAFC002891D04E
:101D600007468FE7D36843F48013D3609EE70121D1
:101D7000201DFFF79DFC002898D0074696E7D36802
:101D800043F48013D360A5E70121201DFFF790FCE9
:101D900000289FD007469DE70221201DFFF788FC01
:101DA0000028ABD00746A9E7022104F12000FFF785
:101DB00037FD0028A2D00746A0E700BF0010024070
:101DC0007047000090F83D30DBB2012B36D1022382
:101DD00080F83D300268D36843F00103D3600368A4
:101DE000194A93421CD0B3F1804F19D0A2F5943216
:101DF000934215D002F58062934211D002F58062C1
:101E000093420DD002F59432934209D002F540621C
:101E1000934205D01A6842F001021A600020704710
:101E200099680A4A0A40062A0AD0B2F5803F09D0CA
:101E30001A6842F001021A600020704701207047C2
:101E40000020704700207047002C0140070001006F
:101E5000704770477047704770B504460368DE6886
:101E60001D6915F0020F10D016F0020F0DD06FF0A3
:101E700002021A610123037703689B6913F0030FC1
:101E800064D0FFF7E6FF0023237715F0040F12D08C
:101E900016F0040F0FD023686FF004021A610223BA
:101EA000237723689B6913F4407F55D02046FFF7C2
:101EB000D0FF0023237715F0080F12D016F0080F7B
:101EC0000FD023686FF008021A6104232377236878
:101ED000DB6913F0030F46D02046FFF7BAFF00235B
:101EE000237715F0100F12D016F0100F0FD02368C3
:101EF0006FF010021A61082323772368DB6913F45B
:101F0000407F37D02046FFF7A4FF0023237715F04A
:101F1000010F02D016F0010F33D115F0800F02D05F
:101F200016F0800F35D115F4807F02D016F0800FA7
:101F300037D115F0400F02D016F0400F39D115F00F
:101F4000200F02D016F0200F3BD170BDFFF780FFAD
:101F50002046FFF77FFF96E72046FFF779FF2046F0
:101F6000FFF778FFA5E72046FFF772FF2046FFF74F
:101F700071FFB4E72046FFF76BFF2046FFF76AFFCB
:101F8000C3E723686FF001021A612046FEF78AFB5F
:101F9000C3E723686FF080021A61204600F0AFF8B3
:101FA000C1E723686FF480721A61204600F0A8F838
:101FB000BFE723686FF040021A612046FFF74BFF2E
:101FC000BDE723686FF020021A61204600F096F802
:101FD000BBE700000368304A904212D0B0F1804F56
:101FE0000FD0A2F5943290420BD002F5806290425D
:101FF00007D002F58062904203D002F594329042FD
:1020000003D123F070034A681343234A90421ED041
:10201000B0F1804F1BD0A2F59432904217D002F558
:102020008062904213D002F5806290420FD002F598
:10203000943290420BD002F54062904207D002F5F4
:102040008062904203D002F58062904203D123F473
:102050004073CA68134323F080034A691343036043
:102060008B68C3620B6883620B4B98420FD003F5F9
:10207000006398420BD003F54063984207D003F504
:102080008063984203D003F58063984201D10B69C5
:102090000363012343617047002C014060B310B516
:1020A000044690F83D3013B3022384F83D302146B6
:1020B00051F8040BFFF78EFF012384F8483084F8B1
:1020C0003E3084F83F3084F8403084F8413084F862
:1020D000423084F8433084F8443084F8453084F842
:1020E000463084F8473084F83D30002010BD80F839
:1020F0003C30FFF765FED7E7012070477047704717
:102100007047026852E8003F23F4907342E80031C0
:102110000029F6D1026802F1080353E8003F23F0DA
:102120000103083242E800310029F3D1036E012B8C
:1021300006D02023C0F880300023036683667047F2
:10214000026852E8003F23F0100342E80031002902
:10215000F6D1EEE710B504460168836802691343BF
:1021600042691343C269134308688E4A024013430D
:102170000B602268536823F44053E1680B435360BB
:10218000A1692268884B9A4201D0236A1943936857
:1021900023F430630B4393602368844A934210D046
:1021A000834A934221D0834A934237D0824A934252
:1021B0005CD0824A93426BD07B4A93427DD01022FE
:1021C0003AE002F55842D2F8882002F00302032ACE
:1021D00009D8DFE802F00204870601222CE004227D
:1021E0002AE0082228E0102226E002F5E632D2F8A2
:1021F000882002F00C020C2A0ED8DFE802F0070D4E
:102200000D0D090D0D0D750D0D0D0B00002213E0C8
:10221000042211E008220FE010220DE002F5E43262
:10222000D2F8882002F03002202A5FD01AD8002A83
:102230005ED0102A5ED104225B498B4276D0E069E1
:10224000B0F5004F00F0A380082A00F20E81DFE80D
:1022500012F0DD00F300DB000C01F6000C010C01B4
:102260000C01F900302A47D10822E5E702F5E232F5
:10227000D2F8882002F0C002802A3FD004D8FAB3F6
:10228000402A3FD10422D7E7C02A3DD10822D3E714
:1022900002F5E032D2F8882002F44072B2F5007FF5
:1022A00034D005D8A2B3B2F5807F33D10422C3E77E
:1022B000B2F5407F30D10822BEE702F5C832D2F82D
:1022C000882002F44062B2F5006F27D005D83AB3F7
:1022D000B2F5806F26D10422AEE7B2F5406F23D16C
:1022E0000822A9E70222A7E70222A5E70222A3E724
:1022F0000022A1E710229FE710229DE702229BE720
:10230000002299E7102297E7102295E7022293E72F
:10231000002291E710228FE710228DE702228BE73F
:10232000002289E7102287E7102285E7082A00F2B9
:102330008C80DFE802F0088A2A8A278A8A8A0500C8
:102340004FF4004003E0FFF771F900287FD0626886
:1023500002EB420383427CD8B0EB023F7BD8010EF4
:1023600000025308C0184FF0000341F10001FDF7CF
:102370002FFFA0F54072124B9A426ED82368D860A6
:10238000002055E0FEF720FDDFE70E48DFE7082AD2
:1023900065D8DFE802F019330564366464641D0013
:1023A000084815E0F369FFEF008000400038014065
:1023B0000044004000480040004C004000500040F5
:1023C000FFFC0F000024F400FFF730F9002848D08C
:1023D0006268530803EB4000B0FBF2F0A0F110027A
:1023E0004FF6EF739A423ED883B223F00F03C0F347
:1023F000420018432368D860002019E0FFF728F94D
:10240000E4E7FEF7E1FCE1E71B4802E0FFF70EF925
:1024100068B3636800EB5300B0FBF3F0A0F1100267
:102420004FF6EF739A4224D8236880B2D860002018
:102430000023A366E36610BDFFF70AF9E8E7FEF79D
:10244000C3FCE5E74FF40040E3E70120F0E700209C
:10245000EEE70120ECE70120EAE70120E8E70120B0
:10246000E6E70020E4E70120E2E70120E0E70020C2
:10247000DEE70120DCE700BF0024F400436A13F02C
:10248000080F06D00268536823F40043416B0B43E6
:102490005360436A13F0010F06D00268536823F4B7
:1024A0000033816A0B435360436A13F0020F06D076
:1024B0000268536823F48033C16A0B435360436A54
:1024C00013F0040F06D00268536823F48023016BD5
:1024D0000B435360436A13F0100F06D002689368F1
:1024E00023F48053816B0B439360436A13F0200FF6
:1024F00006D00268936823F40053C16B0B439360CA
:10250000436A13F0400F0AD00268536823F4801323
:10251000016C0B435360036CB3F5801F0BD0436A0F
:1025200013F0800F06D00268536823F40023816CF7
:102530000B43536070470268536823F4C003416C37
:102540000B435360EBE72DE9F84305460F4616466B
:102550009946DDF820802C68E46937EA04030CBF53
:102560004FF0010C4FF0000CB44532D1B8F1FF3FF1
:10257000F1D0FEF725FAA0EB090040452CD8B8F1C0
:10258000000F2BD02B681A6812F0040FE3D0DA6921
:1025900012F0080F11D1DA6912F4006FDBD04FF49A
:1025A00000621A622846FFF7ACFD2023C5F884308C
:1025B000002385F8783003200CE008241C622846AC
:1025C000FFF79FFDC5F88440002385F8783001208F
:1025D00000E00020BDE8F8830320FBE70320F9E7D3
:1025E00030B583B004460023C0F88430FEF7E8F924
:1025F00005462268126812F0080F0FD123681B6885
:1026000013F0040F26D12023E367C4F880300020A4
:102610002066606684F8780003B030BD6FF07E43BA
:102620000093034600224FF400112046FFF78BFF72
:102630000028E3D0226852E8003F23F0800342E8FC
:1026400000310029F6D12023E367002384F8783095
:102650000320E1E76FF07E4300932B4600224FF406
:1026600080012046FFF76FFF0028CCD0226852E897
:10267000003F23F4907342E800310029F6D122682C
:1026800002F1080353E8003F23F00103083242E857
:1026900000310029F3D12023C4F88030002384F8CE
:1026A00078300320B8E768B310B50446C36F03B3AE
:1026B0002423E3672268136823F001031360636A2D
:1026C000E3B92046FFF746FD012811D02268536880
:1026D00023F4904353602268936823F02A039360A5
:1026E0002268136843F0010313602046FFF778FF68
:1026F00010BD80F87830FEF7D3F8D9E72046FFF711
:10270000BDFEDEE701207047842801D0033070470A
:102710000020704708B500F037FD002008BD2DE906
:10272000F04387B004460F464569BDB18669AEB136
:10273000D0F80480D0F80090B0F90800FFF7E4FF6B
:102740000296019500903B4622694946404600F0BA
:10275000ABFC0590059807B0BDE8F0836568266876
:10276000D4F81080B4F90800FFF7CEFF05AB019351
:1027700000903B461FFA88F23146284600F0CFFC15
:102780000128E7D00020E6E708B500B9012000F0F5
:1027900045FE002008BD00F1080343604FF0FF3202
:1027A0008260C360036100230360704700230361FC
:1027B000704743684B609A688A605160996008610D
:1027C000036801330360704730B40D68B5F1FF3F13
:1027D00011D000F108031C465B681A68AA42FAD9B6
:1027E00063684B6099608C606160086103680133C5
:1027F000036030BC70470469F2E70369416882688E
:102800008A60416851605A68824206D000220261A3
:102810001A68013A1A601868704782685A60F5E7CA
:1028200082B0002301930D4B1B68B3F1FF3F08D02A
:102830004FF0500383F31188BFF36F8FBFF34F8FB7
:10284000FEE74FF0500383F31188BFF36F8FBFF3A0
:102850004F8F019B002BFCD002B070470C00002072
:1028600008480068006880F308884FF0000080F393
:10287000148862B661B6BFF34F8FBFF36F8F00DF6E
:1028800000BF000008ED00E0DFF80C00016841F433
:10289000700101607047000088ED00E04FF0807328
:1028A00040F8043C21F0010140F8081C054B40F8B9
:1028B0000C3C40F8202C6FF0020340F8243C4438D4
:1028C000704700BF21280008000000000000000041
:1028D000074B19680868B0E8F04F80F30988BFF328
:1028E0006F8F4FF0000080F311887047AFF30080C6
:1028F000741300204FF0500383F31188BFF36F8FE0
:10290000BFF34F8F0B4A136801331360012B00D0C4
:1029100070474FF0E023D3F8043D13F0FF0FF7D0DA
:102920004FF0500383F31188BFF36F8FBFF34F8FC6
:10293000FEE700BF0C000020094B1B6843B94FF0B5
:10294000500383F31188BFF36F8FBFF34F8FFEE700
:10295000013B034A13600BB983F31188704700BF32
:102960000C0000200000000000000000000000003B
:10297000EFF30980BFF36F8F154B1A681EF0100F2D
:1029800008BF20ED108A20E9F04F10602DE9090002
:102990004FF0500080F31188BFF34F8FBFF36F8F5C
:1029A00000F062FD4FF0000080F3118809BC196847
:1029B0000868B0E8F04F1EF0100F08BFB0EC108AA6
:1029C00080F30988BFF36F8F704700BFAFF30080BB
:1029D0007413002008B54FF0500383F31188BFF340
:1029E0006F8FBFF34F8F00F011FC28B14FF0E02341
:1029F0004FF08052C3F8042D002383F3118808BDE3
:102A00004FF0E022002313619361054B1B680549D9
:102A1000A1FB03139B09013B53610723136170471B
:102A200000000020D34D62104FF0E023D3F8002DBA
:102A30003D4B9A421CD04FF0E023D3F8002D3B4B86
:102A40009A421ED030B583B0394B1A78D2B2019277
:102A5000FF221A701B78DBB28DF803309DF803302B
:102A600003F05003334A1370334B07221A601BE004
:102A70004FF0500383F31188BFF36F8FBFF34F8F75
:102A8000FEE74FF0500383F31188BFF36F8FBFF35E
:102A90004F8FFEE7284A1368013B13609DF803300F
:102AA0005B00DBB28DF803309DF8033013F0800F2C
:102AB000F0D1214B1B68032B08D04FF0500383F358
:102AC0001188BFF36F8FBFF34F8FFEE71B021A4AC7
:102AD000136003F4E0631360019BDBB2144A1370CC
:102AE0004FF0E024D4F8203D43F47003C4F8203DB7
:102AF000D4F8203D43F07043C4F8203DFFF780FF39
:102B000000250E4B1D60FFF7BFFED4F8343F43F0A5
:102B10004043C4F8343FFFF7A3FE00F0A5FCFFF7E5
:102B20007FFE284603B030BD71C20F4170C20F4115
:102B300000E400E094070020980700200C0000202B
:102B4000134A12F0070F1FD0D11D21F00701C1F564
:102B50003B63083313440A460E480260002141607B
:102B60001344083B23F007030B48036059601960C6
:102B7000991A51601360094B1960094B1960094B90
:102B80004FF000421A60704740F6B833E4E700BFE8
:102B9000A00700206C1300209C0700206013002079
:102BA0005C13002058130020164B1A461B68834202
:102BB000FBD3516802EB010C844509D0416800EB5E
:102BC000010C634509D00360904219D01060704732
:102BD0004068014451601046F0E710B40A4C246884
:102BE000A3420BD05B681944416013681B68036003
:102BF000904200D010605DF8044B70470460F7E726
:102C0000704700BF6C1300209C07002070B505467C
:102C100000F0F4FA364B1B68A3B1364B1B681D421B
:102C20004ED135B1083515F0070F02D025F0070554
:102C30000835002D46D0304B1B68AB4251D32F4A8C
:102C4000146804E0FFF77CFFE7E722461C46636850
:102C5000AB4202D22368002BF7D1254B1B68A3425D
:102C600041D0166808362368136063685B1B102B1D
:102C700010D9601910F0070F08D04FF0500383F3FC
:102C80001188BFF36F8FBFF34F8FFEE7436065601E
:102C9000FFF78AFF626818490B689B1A0B60184996
:102CA00009688B4201D216490B60124B1B68134313
:102CB000636000232360134A13680133136002E04A
:102CC000002600E0002600F02DFB16F0070F0CD0C8
:102CD0004FF0500383F31188BFF36F8FBFF34F8F13
:102CE000FEE70026EFE70026EDE7304670BD00BFA7
:102CF0009C070020581300205C1300206C13002058
:102D00006013002064130020002834D038B5044636
:102D1000A0F1080550F8043C174A1268134208D184
:102D20004FF0500383F31188BFF36F8FBFF34F8FC2
:102D3000FEE750F8081C41B14FF0500383F31188AF
:102D4000BFF36F8FBFF34F8FFEE723EA020340F814
:102D5000043C00F053FA54F8041C084A13680B446E
:102D600013602846FFF720FF054A136801331360FC
:102D700000F0D8FA38BD7047581300205C130020CB
:102D800068130020084B1B681B6823B9074B4FF0E2
:102D9000FF321A607047044B1B68DB68DB685A68B7
:102DA000024B1A60704700BF781300204C140020BB
:102DB0002DE9F04707469846089DDDF824900A9CC7
:102DC000266B02F18042013A06EB820626F00706E6
:102DD00000293AD08E464FF0000CBCF10F0F0BD8F3
:102DE0001EF80C2004EB0C0383F834201EF80C3082
:102DF00013B10CF1010CF0E7002384F84330062DE9
:102E000000D90625E56265644FF0000AC4F848A0C1
:102E1000201DFFF7CBFC04F11800FFF7C7FC24616D
:102E2000C5F10705A5616462C4F84CA084F850A000
:102E3000424639463046FFF731FD2060B9F1000FB8
:102E400001D0C9F80040BDE8F087002384F8343091
:102E5000D5E7000038B5002407E004EB84029300B6
:102E60000E481844FFF797FC0134062CF5D90C4D99
:102E70002846FFF790FC0B4C2046FFF78CFC0A48D5
:102E8000FFF789FC0948FFF786FC0948FFF783FC38
:102E9000084B1D60084B1C6038BD00BF801300202C
:102EA0002014002034140020581400208414002022
:102EB00070140020781300207C13002010B5044605
:102EC000FFF718FD214A136801331360204B1B687C
:102ED0005BB1204B1B686BB91D4B1B68DA6AE36A58
:102EE0009A4207D81A4B1C6004E0194B1C60136807
:102EF000012B28D0184A136801331360E06A0123BC
:102F00008340164A11680B43136000EB8000211DBB
:102F1000134B03EB8000FFF74CFCFFF70DFD0D4B4F
:102F20001B687BB10A4B1B68DA6AE36A9A4209D2D2
:102F30004FF0E0234FF08052C3F8042DBFF34F8FC2
:102F4000BFF36F8F10BDFFF785FFD3E70C14002090
:102F5000741300206C140020181400201C1400208E
:102F60008013002010B5044690F8513063B1012B56
:102F700011D0022B0ED04FF0500383F31188BFF312
:102F80006F8FBFF34F8FFEE7006BFFF7BDFE20464C
:102F9000FFF7BAFE10BDFFF7B7FEFBE70F4B1B684C
:102FA000D3B110B5FFF7A6FC0D4BDB68DC68201D24
:102FB000FFF723FC0B4A1368013B1360074A1368B1
:102FC000013B1360FFF7B8FC2046FFF7CBFF034B34
:102FD0001B68002BE6D110BD704700BF1014002005
:102FE000841400200C14002008B5FFF7D7FF074B0E
:102FF0001B68012BF9D94FF0E0234FF08052C3F842
:10300000042DBFF34F8FBFF36F8FEEE780130020C7
:1030100070B504460D461D4B1E681D4B18680430E4
:10302000FFF7EBFB50B91A4B1B68DA6A012303FA6E
:1030300002F218490B6823EA02030B60B4F1FF3F68
:103040000DD03444124B1B685C60A64210D9124B61
:1030500018680F4B19680431FFF7B6FB70BD002DDF
:10306000EFD00B4B196804310C48FFF7A2FBF5E7D2
:103070000B4B1868064B19680431FFF7A5FB094B89
:103080001B68A342EAD9074B1C60E7E798140020AD
:10309000741300201C1400207C13002070140020E6
:1030A000781300204C14002030B587B00B9C7CB105
:1030B0000C9DB5B154250495049D542D1AD04FF0A4
:1030C000500383F31188BFF36F8FBFF34F8FFEE779
:1030D0004FF0500383F31188BFF36F8FBFF34F8F0F
:1030E000FEE74FF0500383F31188BFF36F8FBFF3F8
:1030F0004F8FFEE7049D0C9D2C63022485F8514000
:1031000000240394029505AC01940A9C0094FFF7F7
:103110004FFE0C98FFF7D2FE059807B030BD2DE9A1
:10312000F04385B00746884614461E469000FFF7D8
:103130006DFD00B381465420FFF768FD0546B0B130
:10314000C0F83090E5B1002385F851300393029523
:103150000D9B01930C9B0093334622464146384613
:10316000FFF726FE2846FFF7A9FE012005E04846A6
:10317000FFF7CAFDE6E74FF0FF3005B0BDE8F0838A
:103180004FF0FF30F9E7000010B588B00024059437
:10319000069407AA06A905A8FDF7C8F9059B02939E
:1031A000069B019300942346079A0E490E48FFF7A9
:1031B0007BFF0E4B186090B14FF0500383F31188E2
:1031C000BFF36F8FBFF34F8F094B4FF0FF321A6081
:1031D000084B01221A60084B1C60FFF725FC08B061
:1031E00010BD00BFCC370008E92F000848140020AC
:1031F0004C1400206C14002098140020024A13681C
:1032000001331360704700BF14140020F8B53A4B27
:103210001B68002B69D1394B1D6801351D60C5B98C
:10322000374B1B681B6843B14FF0500383F3118881
:10323000BFF36F8FBFF34F8FFEE7314A1168314BF9
:10324000186810601960304A136801331360FFF783
:1032500099FD2E4B1B68AB423DD900272C4B1B68B8
:10326000DB6A03EB83039A002A4B9B58012B00D99E
:103270000127294B1B68002B3CD001273AE001278E
:103280001F4B1B681B6843B31D4B1B68DB68DC6866
:1032900063689D4226D3261D3046FFF7AEFAA36A27
:1032A0001BB104F11800FFF7A8FAE36A01229A4063
:1032B0001A49086802430A6003EB83039A00314607
:1032C00014481044FFF775FAE26A114B1B68DB6A79
:1032D0009A42D4D2D4E70027D2E70C4B4FF0FF320A
:1032E0001A60BBE7094A1360B8E70D4A1368013357
:1032F000136000273846F8BD1414002098140020ED
:10330000781300207C130020501400204C1400205F
:1033100074130020801300209C1400201C14002033
:103320005414002038B5354B1B6843B94FF0500397
:1033300083F31188BFF36F8FBFF34F8FFEE7FFF763
:10334000D9FA2E4B1A68013A1A601B68002B4FD12C
:103350002B4B1B680BB900244BE00024294B1B6846
:103360001BB3284BDB68DC6804F11800FFF745FA53
:10337000251D2846FFF741FAE06A01238340224ACF
:1033800011680B43136000EB800029461F4B03EBD1
:103390008000FFF70EFAE26A1D4B1B68DB6A9A4257
:1033A000DCD31C4B01221A60D8E70CB1FFF7EAFC12
:1033B000194B1C6884B9174B1C68D4B14FF0E0233B
:1033C0004FF08052C3F8042DBFF34F8FBFF36F8FC0
:1033D00001240EE0013C07D0FFF718FF0028F9D0C8
:1033E0000C4B01221A60F5E70B4B00221A60E2E752
:1033F0000024FFF7A1FA204638BD00BF14140020B6
:103400000C140020581400201C14002080130020ED
:10341000741300209C1400205414002010B5A8B18F
:103420000446104B1B6843B14FF0500383F31188DF
:10343000BFF36F8FBFF34F8FFEE7FFF7DFFE002173
:103440002046FFF7E5FDFFF76DFF48B94FF0E02399
:103450004FF08052C3F8042DBFF34F8FBFF36F8F2F
:1034600010BD00BF14140020204B1B681BB1204B63
:1034700001221A6070471E4B00221A601D4B1B6808
:10348000B3FA83F3DBB2C3F11F0303EB83018A00BA
:1034900019498A5842B94FF0500383F31188BFF39A
:1034A0006F8FBFF34F8FFEE7134903EB830082005A
:1034B0000A4450684068506003EB830C4FEA8C026A
:1034C00008321144884209D003EB83039A000A4B67
:1034D00013445B68DA68094B1A60704740686246BB
:1034E0009100054A0A445060EEE700BF1414002022
:1034F0009C1400201C140020801300207413002052
:1035000070B50D4E0D4D761BB61006D0002455F843
:10351000043B01349847A642F9D1094E094D761B68
:1035200000F0D4F8B61006D0002455F8043B01345E
:103530009847A642F9D170BDE0370008E03700088F
:10354000E8370008E0370008830730B548D0541E3C
:10355000002A3FD0CAB2034601E0013C3AD303F847
:10356000012B9D07F9D1032C2DD9CDB245EA0525B4
:103570000F2C45EA054536D9A4F1100222F00F0CB4
:1035800003F1200EE6444FEA121C03F1100242E957
:10359000045542E9025510327245F8D10CF101028E
:1035A00014F00C0F03EB021204F00F0C13D0ACF16B
:1035B000040323F003030433134442F8045B9342EF
:1035C000FBD10CF003042CB1CAB21C4403F8012B4C
:1035D0009C42FBD130BD64461346002CF4D1F9E780
:1035E00003461446BFE71A46A446E0E7024B13B170
:1035F000024800F005B87047000000000D360008D2
:10360000002301461A46184600F01AB838B5084B90
:10361000084D5B1B9C1007D0043B1D44013C55F832
:1036200004399847002CF9D1BDE8384000F054B86F
:10363000EC370008E8370008704700BF704700BF4C
:103640002DE9F047DFF880A00646DAF8000098463A
:103650000F469146FFF7F0FF1A4B1B68D3F848411D
:1036600024B365681F2D26DC5EB96B1C0235DAF8C1
:103670000000636044F82570FFF7E0FF0020BDE81C
:10368000F08704EB85010123C1F88890D4F88821E4
:10369000AB401A43022EC4F88821C1F80881E4D156
:1036A000D4F88C211343C4F88C31DEE703F5A674FB
:1036B000C3F84841D5E7DAF80000FFF7BFFF4FF045
:1036C000FF30DCE7D437000838040020F8B500BF2D
:1036D000F8BC08BC9E467047F8B500BFF8BC08BCF3
:0436E0009E4670474B
:1036E40054370008D5040008000000000000000062
:1036F40080000000000000000000000060370008A7
:10370400EB040008FEFF0000000000008000000041
:1037140000000000000000006C37000801050008EC
:10372400FEFF000000000000800000000000000018
:10373400000000007837000817050008FEFF0000AD
:1037440000000000800000000000000000000000F5
:103754005461736B5F6D61696E0000006D79546133
:10376400736B4C45440000006D795461736B3033C6
:10377400000000006D795461736B30340000000068
:10378400000000000000000001020304060708090D
:103794000000000001020304A0860100400D0300A4
:1037A400801A060000350C0040420F0080841E0081
:1037B40000093D0000127A000024F40000366E0176
:1037C4000048E801006CDC0249444C45000000005C
:0437D40010000020C1
:0837D80028CAFF7F0100000078
:0837E000ED350008B5010008F9
:0437E8009101000843
:1037EC0000093D000100000010000000AAAAAAAACE
:1037FC0000000000FC02002064030020CC03002029
:10380C0000000000000000000000000000000000AC
:10381C00000000000000000000000000000000009C
:10382C00000000000000000000000000000000008C
:10383C00000000000000000000000000000000007C
:10384C00000000000000000000000000000000006C
:10385C00000000000000000000000000000000005C
:10386C00000000000000000000000000000000004C
:10387C00000000000000000000000000000000003C
:10388C00000000000000000000000000000000002C
:10389C00000000000000000001000000000000001B
:1038AC000E33CDAB34126DE6ECDE05000B000000E0
:1038BC0000000000000000000000000000000000FC
:1038CC0000000000000000000000000000000000EC
:1038DC0000000000000000000000000000000000DC
:1038EC0000000000000000000000000000000000CC
:0C3C1C000000000000000000A0140020C8
:0400000508000929BD
:00000001FF
